{
  "contractName": "Token",
  "abi": [
    {
      "inputs": [
        {
          "internalType": "string",
          "name": "name",
          "type": "string"
        },
        {
          "internalType": "string",
          "name": "symbol",
          "type": "string"
        }
      ],
      "stateMutability": "nonpayable",
      "type": "constructor"
    },
    {
      "anonymous": false,
      "inputs": [
        {
          "indexed": true,
          "internalType": "address",
          "name": "owner",
          "type": "address"
        },
        {
          "indexed": true,
          "internalType": "address",
          "name": "approved",
          "type": "address"
        },
        {
          "indexed": true,
          "internalType": "uint256",
          "name": "tokenId",
          "type": "uint256"
        }
      ],
      "name": "Approval",
      "type": "event"
    },
    {
      "anonymous": false,
      "inputs": [
        {
          "indexed": true,
          "internalType": "address",
          "name": "owner",
          "type": "address"
        },
        {
          "indexed": true,
          "internalType": "address",
          "name": "operator",
          "type": "address"
        },
        {
          "indexed": false,
          "internalType": "bool",
          "name": "approved",
          "type": "bool"
        }
      ],
      "name": "ApprovalForAll",
      "type": "event"
    },
    {
      "anonymous": false,
      "inputs": [
        {
          "indexed": true,
          "internalType": "address",
          "name": "previousOwner",
          "type": "address"
        },
        {
          "indexed": true,
          "internalType": "address",
          "name": "newOwner",
          "type": "address"
        }
      ],
      "name": "OwnershipTransferred",
      "type": "event"
    },
    {
      "anonymous": false,
      "inputs": [
        {
          "indexed": true,
          "internalType": "address",
          "name": "from",
          "type": "address"
        },
        {
          "indexed": true,
          "internalType": "address",
          "name": "to",
          "type": "address"
        },
        {
          "indexed": true,
          "internalType": "uint256",
          "name": "tokenId",
          "type": "uint256"
        }
      ],
      "name": "Transfer",
      "type": "event"
    },
    {
      "inputs": [
        {
          "internalType": "address",
          "name": "to",
          "type": "address"
        },
        {
          "internalType": "uint256",
          "name": "tokenId",
          "type": "uint256"
        }
      ],
      "name": "approve",
      "outputs": [],
      "stateMutability": "nonpayable",
      "type": "function"
    },
    {
      "inputs": [
        {
          "internalType": "address",
          "name": "owner",
          "type": "address"
        }
      ],
      "name": "balanceOf",
      "outputs": [
        {
          "internalType": "uint256",
          "name": "",
          "type": "uint256"
        }
      ],
      "stateMutability": "view",
      "type": "function",
      "constant": true
    },
    {
      "inputs": [
        {
          "internalType": "uint256",
          "name": "tokenId",
          "type": "uint256"
        }
      ],
      "name": "getApproved",
      "outputs": [
        {
          "internalType": "address",
          "name": "",
          "type": "address"
        }
      ],
      "stateMutability": "view",
      "type": "function",
      "constant": true
    },
    {
      "inputs": [
        {
          "internalType": "address",
          "name": "owner",
          "type": "address"
        },
        {
          "internalType": "address",
          "name": "operator",
          "type": "address"
        }
      ],
      "name": "isApprovedForAll",
      "outputs": [
        {
          "internalType": "bool",
          "name": "",
          "type": "bool"
        }
      ],
      "stateMutability": "view",
      "type": "function",
      "constant": true
    },
    {
      "inputs": [],
      "name": "name",
      "outputs": [
        {
          "internalType": "string",
          "name": "",
          "type": "string"
        }
      ],
      "stateMutability": "view",
      "type": "function",
      "constant": true
    },
    {
      "inputs": [],
      "name": "owner",
      "outputs": [
        {
          "internalType": "address",
          "name": "",
          "type": "address"
        }
      ],
      "stateMutability": "view",
      "type": "function",
      "constant": true
    },
    {
      "inputs": [
        {
          "internalType": "uint256",
          "name": "tokenId",
          "type": "uint256"
        }
      ],
      "name": "ownerOf",
      "outputs": [
        {
          "internalType": "address",
          "name": "",
          "type": "address"
        }
      ],
      "stateMutability": "view",
      "type": "function",
      "constant": true
    },
    {
      "inputs": [],
      "name": "renounceOwnership",
      "outputs": [],
      "stateMutability": "nonpayable",
      "type": "function"
    },
    {
      "inputs": [
        {
          "internalType": "address",
          "name": "from",
          "type": "address"
        },
        {
          "internalType": "address",
          "name": "to",
          "type": "address"
        },
        {
          "internalType": "uint256",
          "name": "tokenId",
          "type": "uint256"
        }
      ],
      "name": "safeTransferFrom",
      "outputs": [],
      "stateMutability": "nonpayable",
      "type": "function"
    },
    {
      "inputs": [
        {
          "internalType": "address",
          "name": "from",
          "type": "address"
        },
        {
          "internalType": "address",
          "name": "to",
          "type": "address"
        },
        {
          "internalType": "uint256",
          "name": "tokenId",
          "type": "uint256"
        },
        {
          "internalType": "bytes",
          "name": "_data",
          "type": "bytes"
        }
      ],
      "name": "safeTransferFrom",
      "outputs": [],
      "stateMutability": "nonpayable",
      "type": "function"
    },
    {
      "inputs": [
        {
          "internalType": "address",
          "name": "operator",
          "type": "address"
        },
        {
          "internalType": "bool",
          "name": "approved",
          "type": "bool"
        }
      ],
      "name": "setApprovalForAll",
      "outputs": [],
      "stateMutability": "nonpayable",
      "type": "function"
    },
    {
      "inputs": [
        {
          "internalType": "bytes4",
          "name": "interfaceId",
          "type": "bytes4"
        }
      ],
      "name": "supportsInterface",
      "outputs": [
        {
          "internalType": "bool",
          "name": "",
          "type": "bool"
        }
      ],
      "stateMutability": "view",
      "type": "function",
      "constant": true
    },
    {
      "inputs": [],
      "name": "symbol",
      "outputs": [
        {
          "internalType": "string",
          "name": "",
          "type": "string"
        }
      ],
      "stateMutability": "view",
      "type": "function",
      "constant": true
    },
    {
      "inputs": [
        {
          "internalType": "uint256",
          "name": "tokenId",
          "type": "uint256"
        }
      ],
      "name": "tokenURI",
      "outputs": [
        {
          "internalType": "string",
          "name": "",
          "type": "string"
        }
      ],
      "stateMutability": "view",
      "type": "function",
      "constant": true
    },
    {
      "inputs": [
        {
          "internalType": "address",
          "name": "from",
          "type": "address"
        },
        {
          "internalType": "address",
          "name": "to",
          "type": "address"
        },
        {
          "internalType": "uint256",
          "name": "tokenId",
          "type": "uint256"
        }
      ],
      "name": "transferFrom",
      "outputs": [],
      "stateMutability": "nonpayable",
      "type": "function"
    },
    {
      "inputs": [
        {
          "internalType": "address",
          "name": "newOwner",
          "type": "address"
        }
      ],
      "name": "transferOwnership",
      "outputs": [],
      "stateMutability": "nonpayable",
      "type": "function"
    },
    {
      "inputs": [
        {
          "internalType": "uint256",
          "name": "tokenId",
          "type": "uint256"
        }
      ],
      "name": "getTokenDetails",
      "outputs": [
        {
          "components": [
            {
              "internalType": "uint8",
              "name": "health",
              "type": "uint8"
            },
            {
              "internalType": "uint8",
              "name": "feature",
              "type": "uint8"
            },
            {
              "internalType": "uint256",
              "name": "lastWatered",
              "type": "uint256"
            },
            {
              "internalType": "uint256",
              "name": "endurance",
              "type": "uint256"
            }
          ],
          "internalType": "struct Token.Plant",
          "name": "",
          "type": "tuple"
        }
      ],
      "stateMutability": "view",
      "type": "function",
      "constant": true
    },
    {
      "inputs": [
        {
          "internalType": "uint8",
          "name": "health",
          "type": "uint8"
        },
        {
          "internalType": "uint8",
          "name": "feature",
          "type": "uint8"
        },
        {
          "internalType": "uint256",
          "name": "endurance",
          "type": "uint256"
        }
      ],
      "name": "mint",
      "outputs": [],
      "stateMutability": "nonpayable",
      "type": "function"
    },
    {
      "inputs": [
        {
          "internalType": "uint256",
          "name": "tokenId",
          "type": "uint256"
        }
      ],
      "name": "water",
      "outputs": [],
      "stateMutability": "nonpayable",
      "type": "function"
    },
    {
      "inputs": [
        {
          "internalType": "address",
          "name": "user",
          "type": "address"
        }
      ],
      "name": "getAllTokensForUser",
      "outputs": [
        {
          "internalType": "uint256[]",
          "name": "",
          "type": "uint256[]"
        }
      ],
      "stateMutability": "view",
      "type": "function",
      "constant": true
    }
  ],
  "bytecode": "0x608060405260006007553480156200001657600080fd5b50604051620036223803806200362283398181016040528101906200003c91906200028a565b818181600090805190602001906200005692919062000168565b5080600190805190602001906200006f92919062000168565b50505062000092620000866200009a60201b60201c565b620000a260201b60201c565b50506200046d565b600033905090565b6000600660009054906101000a900473ffffffffffffffffffffffffffffffffffffffff16905081600660006101000a81548173ffffffffffffffffffffffffffffffffffffffff021916908373ffffffffffffffffffffffffffffffffffffffff1602179055508173ffffffffffffffffffffffffffffffffffffffff168173ffffffffffffffffffffffffffffffffffffffff167f8be0079c531659141344cd1fd0a4f28419497f9722a3daafe3b4186f6b6457e060405160405180910390a35050565b828054620001769062000392565b90600052602060002090601f0160209004810192826200019a5760008555620001e6565b82601f10620001b557805160ff1916838001178555620001e6565b82800160010185558215620001e6579182015b82811115620001e5578251825591602001919060010190620001c8565b5b509050620001f59190620001f9565b5090565b5b8082111562000214576000816000905550600101620001fa565b5090565b60006200022f620002298462000326565b620002fd565b9050828152602081018484840111156200024857600080fd5b620002558482856200035c565b509392505050565b600082601f8301126200026f57600080fd5b81516200028184826020860162000218565b91505092915050565b600080604083850312156200029e57600080fd5b600083015167ffffffffffffffff811115620002b957600080fd5b620002c7858286016200025d565b925050602083015167ffffffffffffffff811115620002e557600080fd5b620002f3858286016200025d565b9150509250929050565b6000620003096200031c565b9050620003178282620003c8565b919050565b6000604051905090565b600067ffffffffffffffff8211156200034457620003436200042d565b5b6200034f826200045c565b9050602081019050919050565b60005b838110156200037c5780820151818401526020810190506200035f565b838111156200038c576000848401525b50505050565b60006002820490506001821680620003ab57607f821691505b60208210811415620003c257620003c1620003fe565b5b50919050565b620003d3826200045c565b810181811067ffffffffffffffff82111715620003f557620003f46200042d565b5b80604052505050565b7f4e487b7100000000000000000000000000000000000000000000000000000000600052602260045260246000fd5b7f4e487b7100000000000000000000000000000000000000000000000000000000600052604160045260246000fd5b6000601f19601f8301169050919050565b6131a5806200047d6000396000f3fe608060405234801561001057600080fd5b506004361061012c5760003560e01c80638da5cb5b116100ad578063c1e0372811610071578063c1e037281461032d578063c87b56dd1461035d578063e985e9c51461038d578063eb22ed32146103bd578063f2fde38b146103d95761012c565b80638da5cb5b1461029d57806395d89b41146102bb578063a22cb465146102d9578063a7eec44b146102f5578063b88d4fde146103115761012c565b806342842e0e116100f457806342842e0e146101e75780636352211e1461020357806370a0823114610233578063715018a61461026357806382de8fe91461026d5761012c565b806301ffc9a71461013157806306fdde0314610161578063081812fc1461017f578063095ea7b3146101af57806323b872dd146101cb575b600080fd5b61014b600480360381019061014691906120d7565b6103f5565b6040516101589190612637565b60405180910390f35b6101696104d7565b6040516101769190612652565b60405180910390f35b61019960048036038101906101949190612129565b610569565b6040516101a691906125ae565b60405180910390f35b6101c960048036038101906101c4919061209b565b6105ee565b005b6101e560048036038101906101e09190611f95565b610706565b005b61020160048036038101906101fc9190611f95565b610766565b005b61021d60048036038101906102189190612129565b610786565b60405161022a91906125ae565b60405180910390f35b61024d60048036038101906102489190611f30565b610838565b60405161025a919061288f565b60405180910390f35b61026b6108f0565b005b61028760048036038101906102829190611f30565b610978565b6040516102949190612615565b60405180910390f35b6102a5610b40565b6040516102b291906125ae565b60405180910390f35b6102c3610b6a565b6040516102d09190612652565b60405180910390f35b6102f360048036038101906102ee919061205f565b610bfc565b005b61030f600480360381019061030a9190612129565b610c12565b005b61032b60048036038101906103269190611fe4565b610c55565b005b61034760048036038101906103429190612129565b610cb7565b6040516103549190612874565b60405180910390f35b61037760048036038101906103729190612129565b610d32565b6040516103849190612652565b60405180910390f35b6103a760048036038101906103a29190611f59565b610dd9565b6040516103b49190612637565b60405180910390f35b6103d760048036038101906103d29190612152565b610e6d565b005b6103f360048036038101906103ee9190611f30565b610fa7565b005b60007f80ac58cd000000000000000000000000000000000000000000000000000000007bffffffffffffffffffffffffffffffffffffffffffffffffffffffff1916827bffffffffffffffffffffffffffffffffffffffffffffffffffffffff191614806104c057507f5b5e139f000000000000000000000000000000000000000000000000000000007bffffffffffffffffffffffffffffffffffffffffffffffffffffffff1916827bffffffffffffffffffffffffffffffffffffffffffffffffffffffff1916145b806104d057506104cf8261109f565b5b9050919050565b6060600080546104e690612afa565b80601f016020809104026020016040519081016040528092919081815260200182805461051290612afa565b801561055f5780601f106105345761010080835404028352916020019161055f565b820191906000526020600020905b81548152906001019060200180831161054257829003601f168201915b5050505050905090565b600061057482611109565b6105b3576040517f08c379a00000000000000000000000000000000000000000000000000000000081526004016105aa906127d4565b60405180910390fd5b6004600083815260200190815260200160002060009054906101000a900473ffffffffffffffffffffffffffffffffffffffff169050919050565b60006105f982610786565b90508073ffffffffffffffffffffffffffffffffffffffff168373ffffffffffffffffffffffffffffffffffffffff16141561066a576040517f08c379a000000000000000000000000000000000000000000000000000000000815260040161066190612834565b60405180910390fd5b8073ffffffffffffffffffffffffffffffffffffffff16610689611175565b73ffffffffffffffffffffffffffffffffffffffff1614806106b857506106b7816106b2611175565b610dd9565b5b6106f7576040517f08c379a00000000000000000000000000000000000000000000000000000000081526004016106ee90612754565b60405180910390fd5b610701838361117d565b505050565b610717610711611175565b82611236565b610756576040517f08c379a000000000000000000000000000000000000000000000000000000000815260040161074d90612854565b60405180910390fd5b610761838383611314565b505050565b61078183838360405180602001604052806000815250610c55565b505050565b6000806002600084815260200190815260200160002060009054906101000a900473ffffffffffffffffffffffffffffffffffffffff169050600073ffffffffffffffffffffffffffffffffffffffff168173ffffffffffffffffffffffffffffffffffffffff16141561082f576040517f08c379a000000000000000000000000000000000000000000000000000000000815260040161082690612794565b60405180910390fd5b80915050919050565b60008073ffffffffffffffffffffffffffffffffffffffff168273ffffffffffffffffffffffffffffffffffffffff1614156108a9576040517f08c379a00000000000000000000000000000000000000000000000000000000081526004016108a090612774565b60405180910390fd5b600360008373ffffffffffffffffffffffffffffffffffffffff1673ffffffffffffffffffffffffffffffffffffffff168152602001908152602001600020549050919050565b6108f8611175565b73ffffffffffffffffffffffffffffffffffffffff16610916610b40565b73ffffffffffffffffffffffffffffffffffffffff161461096c576040517f08c379a0000000000000000000000000000000000000000000000000000000008152600401610963906127f4565b60405180910390fd5b610976600061157b565b565b6060600061098583610838565b90506000811415610a0857600067ffffffffffffffff8111156109d1577f4e487b7100000000000000000000000000000000000000000000000000000000600052604160045260246000fd5b6040519080825280602002602001820160405280156109ff5781602001602082028036833780820191505090505b50915050610b3b565b60008167ffffffffffffffff811115610a4a577f4e487b7100000000000000000000000000000000000000000000000000000000600052604160045260246000fd5b604051908082528060200260200182016040528015610a785781602001602082028036833780820191505090505b509050600060075490506000805b82811015610b32578673ffffffffffffffffffffffffffffffffffffffff16610aae82610786565b73ffffffffffffffffffffffffffffffffffffffff161415610b1f5780848381518110610b04577f4e487b7100000000000000000000000000000000000000000000000000000000600052603260045260246000fd5b6020026020010181815250508180610b1b90612b5d565b9250505b8080610b2a90612b5d565b915050610a86565b83955050505050505b919050565b6000600660009054906101000a900473ffffffffffffffffffffffffffffffffffffffff16905090565b606060018054610b7990612afa565b80601f0160208091040260200160405190810160405280929190818152602001828054610ba590612afa565b8015610bf25780601f10610bc757610100808354040283529160200191610bf2565b820191906000526020600020905b815481529060010190602001808311610bd557829003601f168201915b5050505050905090565b610c0e610c07611175565b8383611641565b5050565b60006008600083815260200190815260200160002090504281600201548260010154610c3e919061297c565b11610c4857600080fd5b4281600101819055505050565b610c66610c60611175565b83611236565b610ca5576040517f08c379a0000000000000000000000000000000000000000000000000000000008152600401610c9c90612854565b60405180910390fd5b610cb1848484846117ae565b50505050565b610cbf611e1c565b600860008381526020019081526020016000206040518060800160405290816000820160009054906101000a900460ff1660ff1660ff1681526020016000820160019054906101000a900460ff1660ff1660ff168152602001600182015481526020016002820154815250509050919050565b6060610d3d82611109565b610d7c576040517f08c379a0000000000000000000000000000000000000000000000000000000008152600401610d7390612814565b60405180910390fd5b6000610d8661180a565b90506000815111610da65760405180602001604052806000815250610dd1565b80610db084611821565b604051602001610dc192919061258a565b6040516020818303038152906040525b915050919050565b6000600560008473ffffffffffffffffffffffffffffffffffffffff1673ffffffffffffffffffffffffffffffffffffffff16815260200190815260200160002060008373ffffffffffffffffffffffffffffffffffffffff1673ffffffffffffffffffffffffffffffffffffffff16815260200190815260200160002060009054906101000a900460ff16905092915050565b610e75611175565b73ffffffffffffffffffffffffffffffffffffffff16610e93610b40565b73ffffffffffffffffffffffffffffffffffffffff1614610ee9576040517f08c379a0000000000000000000000000000000000000000000000000000000008152600401610ee0906127f4565b60405180910390fd5b60405180608001604052808460ff1681526020018360ff1681526020014281526020018281525060086000600754815260200190815260200160002060008201518160000160006101000a81548160ff021916908360ff16021790555060208201518160000160016101000a81548160ff021916908360ff1602179055506040820151816001015560608201518160020155905050610f8a336007546119ce565b60076000815480929190610f9d90612b5d565b9190505550505050565b610faf611175565b73ffffffffffffffffffffffffffffffffffffffff16610fcd610b40565b73ffffffffffffffffffffffffffffffffffffffff1614611023576040517f08c379a000000000000000000000000000000000000000000000000000000000815260040161101a906127f4565b60405180910390fd5b600073ffffffffffffffffffffffffffffffffffffffff168173ffffffffffffffffffffffffffffffffffffffff161415611093576040517f08c379a000000000000000000000000000000000000000000000000000000000815260040161108a90612694565b60405180910390fd5b61109c8161157b565b50565b60007f01ffc9a7000000000000000000000000000000000000000000000000000000007bffffffffffffffffffffffffffffffffffffffffffffffffffffffff1916827bffffffffffffffffffffffffffffffffffffffffffffffffffffffff1916149050919050565b60008073ffffffffffffffffffffffffffffffffffffffff166002600084815260200190815260200160002060009054906101000a900473ffffffffffffffffffffffffffffffffffffffff1673ffffffffffffffffffffffffffffffffffffffff1614159050919050565b600033905090565b816004600083815260200190815260200160002060006101000a81548173ffffffffffffffffffffffffffffffffffffffff021916908373ffffffffffffffffffffffffffffffffffffffff160217905550808273ffffffffffffffffffffffffffffffffffffffff166111f083610786565b73ffffffffffffffffffffffffffffffffffffffff167f8c5be1e5ebec7d5bd14f71427d1e84f3dd0314c0f7b2291e5b200ac8c7c3b92560405160405180910390a45050565b600061124182611109565b611280576040517f08c379a000000000000000000000000000000000000000000000000000000000815260040161127790612734565b60405180910390fd5b600061128b83610786565b90508073ffffffffffffffffffffffffffffffffffffffff168473ffffffffffffffffffffffffffffffffffffffff1614806112fa57508373ffffffffffffffffffffffffffffffffffffffff166112e284610569565b73ffffffffffffffffffffffffffffffffffffffff16145b8061130b575061130a8185610dd9565b5b91505092915050565b8273ffffffffffffffffffffffffffffffffffffffff1661133482610786565b73ffffffffffffffffffffffffffffffffffffffff161461138a576040517f08c379a0000000000000000000000000000000000000000000000000000000008152600401611381906126b4565b60405180910390fd5b600073ffffffffffffffffffffffffffffffffffffffff168273ffffffffffffffffffffffffffffffffffffffff1614156113fa576040517f08c379a00000000000000000000000000000000000000000000000000000000081526004016113f1906126f4565b60405180910390fd5b6114058383836119ec565b61141060008261117d565b6001600360008573ffffffffffffffffffffffffffffffffffffffff1673ffffffffffffffffffffffffffffffffffffffff16815260200190815260200160002060008282546114609190612a03565b925050819055506001600360008473ffffffffffffffffffffffffffffffffffffffff1673ffffffffffffffffffffffffffffffffffffffff16815260200190815260200160002060008282546114b7919061297c565b92505081905550816002600083815260200190815260200160002060006101000a81548173ffffffffffffffffffffffffffffffffffffffff021916908373ffffffffffffffffffffffffffffffffffffffff160217905550808273ffffffffffffffffffffffffffffffffffffffff168473ffffffffffffffffffffffffffffffffffffffff167fddf252ad1be2c89b69c2b068fc378daa952ba7f163c4a11628f55a4df523b3ef60405160405180910390a4611576838383611a28565b505050565b6000600660009054906101000a900473ffffffffffffffffffffffffffffffffffffffff16905081600660006101000a81548173ffffffffffffffffffffffffffffffffffffffff021916908373ffffffffffffffffffffffffffffffffffffffff1602179055508173ffffffffffffffffffffffffffffffffffffffff168173ffffffffffffffffffffffffffffffffffffffff167f8be0079c531659141344cd1fd0a4f28419497f9722a3daafe3b4186f6b6457e060405160405180910390a35050565b8173ffffffffffffffffffffffffffffffffffffffff168373ffffffffffffffffffffffffffffffffffffffff1614156116b0576040517f08c379a00000000000000000000000000000000000000000000000000000000081526004016116a790612714565b60405180910390fd5b80600560008573ffffffffffffffffffffffffffffffffffffffff1673ffffffffffffffffffffffffffffffffffffffff16815260200190815260200160002060008473ffffffffffffffffffffffffffffffffffffffff1673ffffffffffffffffffffffffffffffffffffffff16815260200190815260200160002060006101000a81548160ff0219169083151502179055508173ffffffffffffffffffffffffffffffffffffffff168373ffffffffffffffffffffffffffffffffffffffff167f17307eab39ab6107e8899845ad3d59bd9653f200f220920489ca2b5937696c31836040516117a19190612637565b60405180910390a3505050565b6117b9848484611314565b6117c584848484611a2d565b611804576040517f08c379a00000000000000000000000000000000000000000000000000000000081526004016117fb90612674565b60405180910390fd5b50505050565b606060405180602001604052806000815250905090565b60606000821415611869576040518060400160405280600181526020017f300000000000000000000000000000000000000000000000000000000000000081525090506119c9565b600082905060005b6000821461189b57808061188490612b5d565b915050600a8261189491906129d2565b9150611871565b60008167ffffffffffffffff8111156118dd577f4e487b7100000000000000000000000000000000000000000000000000000000600052604160045260246000fd5b6040519080825280601f01601f19166020018201604052801561190f5781602001600182028036833780820191505090505b5090505b600085146119c2576001826119289190612a03565b9150600a856119379190612ba6565b6030611943919061297c565b60f81b81838151811061197f577f4e487b7100000000000000000000000000000000000000000000000000000000600052603260045260246000fd5b60200101907effffffffffffffffffffffffffffffffffffffffffffffffffffffffffffff1916908160001a905350600a856119bb91906129d2565b9450611913565b8093505050505b919050565b6119e8828260405180602001604052806000815250611bc4565b5050565b60006008600083815260200190815260200160002090504281600201548260010154611a18919061297c565b11611a2257600080fd5b50505050565b505050565b6000611a4e8473ffffffffffffffffffffffffffffffffffffffff16611c1f565b15611bb7578373ffffffffffffffffffffffffffffffffffffffff1663150b7a02611a77611175565b8786866040518563ffffffff1660e01b8152600401611a9994939291906125c9565b602060405180830381600087803b158015611ab357600080fd5b505af1925050508015611ae457506040513d601f19601f82011682018060405250810190611ae19190612100565b60015b611b67573d8060008114611b14576040519150601f19603f3d011682016040523d82523d6000602084013e611b19565b606091505b50600081511415611b5f576040517f08c379a0000000000000000000000000000000000000000000000000000000008152600401611b5690612674565b60405180910390fd5b805181602001fd5b63150b7a0260e01b7bffffffffffffffffffffffffffffffffffffffffffffffffffffffff1916817bffffffffffffffffffffffffffffffffffffffffffffffffffffffff191614915050611bbc565b600190505b949350505050565b611bce8383611c42565b611bdb6000848484611a2d565b611c1a576040517f08c379a0000000000000000000000000000000000000000000000000000000008152600401611c1190612674565b60405180910390fd5b505050565b6000808273ffffffffffffffffffffffffffffffffffffffff163b119050919050565b600073ffffffffffffffffffffffffffffffffffffffff168273ffffffffffffffffffffffffffffffffffffffff161415611cb2576040517f08c379a0000000000000000000000000000000000000000000000000000000008152600401611ca9906127b4565b60405180910390fd5b611cbb81611109565b15611cfb576040517f08c379a0000000000000000000000000000000000000000000000000000000008152600401611cf2906126d4565b60405180910390fd5b611d07600083836119ec565b6001600360008473ffffffffffffffffffffffffffffffffffffffff1673ffffffffffffffffffffffffffffffffffffffff1681526020019081526020016000206000828254611d57919061297c565b92505081905550816002600083815260200190815260200160002060006101000a81548173ffffffffffffffffffffffffffffffffffffffff021916908373ffffffffffffffffffffffffffffffffffffffff160217905550808273ffffffffffffffffffffffffffffffffffffffff16600073ffffffffffffffffffffffffffffffffffffffff167fddf252ad1be2c89b69c2b068fc378daa952ba7f163c4a11628f55a4df523b3ef60405160405180910390a4611e1860008383611a28565b5050565b6040518060800160405280600060ff168152602001600060ff16815260200160008152602001600081525090565b6000611e5d611e58846128cf565b6128aa565b905082815260208101848484011115611e7557600080fd5b611e80848285612ab8565b509392505050565b600081359050611e97816130fc565b92915050565b600081359050611eac81613113565b92915050565b600081359050611ec18161312a565b92915050565b600081519050611ed68161312a565b92915050565b600082601f830112611eed57600080fd5b8135611efd848260208601611e4a565b91505092915050565b600081359050611f1581613141565b92915050565b600081359050611f2a81613158565b92915050565b600060208284031215611f4257600080fd5b6000611f5084828501611e88565b91505092915050565b60008060408385031215611f6c57600080fd5b6000611f7a85828601611e88565b9250506020611f8b85828601611e88565b9150509250929050565b600080600060608486031215611faa57600080fd5b6000611fb886828701611e88565b9350506020611fc986828701611e88565b9250506040611fda86828701611f06565b9150509250925092565b60008060008060808587031215611ffa57600080fd5b600061200887828801611e88565b945050602061201987828801611e88565b935050604061202a87828801611f06565b925050606085013567ffffffffffffffff81111561204757600080fd5b61205387828801611edc565b91505092959194509250565b6000806040838503121561207257600080fd5b600061208085828601611e88565b925050602061209185828601611e9d565b9150509250929050565b600080604083850312156120ae57600080fd5b60006120bc85828601611e88565b92505060206120cd85828601611f06565b9150509250929050565b6000602082840312156120e957600080fd5b60006120f784828501611eb2565b91505092915050565b60006020828403121561211257600080fd5b600061212084828501611ec7565b91505092915050565b60006020828403121561213b57600080fd5b600061214984828501611f06565b91505092915050565b60008060006060848603121561216757600080fd5b600061217586828701611f1b565b935050602061218686828701611f1b565b925050604061219786828701611f06565b9150509250925092565b60006121ad838361255d565b60208301905092915050565b6121c281612a37565b82525050565b60006121d382612910565b6121dd818561293e565b93506121e883612900565b8060005b8381101561221957815161220088826121a1565b975061220b83612931565b9250506001810190506121ec565b5085935050505092915050565b61222f81612a49565b82525050565b60006122408261291b565b61224a818561294f565b935061225a818560208601612ac7565b61226381612c93565b840191505092915050565b600061227982612926565b6122838185612960565b9350612293818560208601612ac7565b61229c81612c93565b840191505092915050565b60006122b282612926565b6122bc8185612971565b93506122cc818560208601612ac7565b80840191505092915050565b60006122e5603283612960565b91506122f082612ca4565b604082019050919050565b6000612308602683612960565b915061231382612cf3565b604082019050919050565b600061232b602583612960565b915061233682612d42565b604082019050919050565b600061234e601c83612960565b915061235982612d91565b602082019050919050565b6000612371602483612960565b915061237c82612dba565b604082019050919050565b6000612394601983612960565b915061239f82612e09565b602082019050919050565b60006123b7602c83612960565b91506123c282612e32565b604082019050919050565b60006123da603883612960565b91506123e582612e81565b604082019050919050565b60006123fd602a83612960565b915061240882612ed0565b604082019050919050565b6000612420602983612960565b915061242b82612f1f565b604082019050919050565b6000612443602083612960565b915061244e82612f6e565b602082019050919050565b6000612466602c83612960565b915061247182612f97565b604082019050919050565b6000612489602083612960565b915061249482612fe6565b602082019050919050565b60006124ac602f83612960565b91506124b78261300f565b604082019050919050565b60006124cf602183612960565b91506124da8261305e565b604082019050919050565b60006124f2603183612960565b91506124fd826130ad565b604082019050919050565b60808201600082015161251e600085018261257b565b506020820151612531602085018261257b565b506040820151612544604085018261255d565b506060820151612557606085018261255d565b50505050565b61256681612aa1565b82525050565b61257581612aa1565b82525050565b61258481612aab565b82525050565b600061259682856122a7565b91506125a282846122a7565b91508190509392505050565b60006020820190506125c360008301846121b9565b92915050565b60006080820190506125de60008301876121b9565b6125eb60208301866121b9565b6125f8604083018561256c565b818103606083015261260a8184612235565b905095945050505050565b6000602082019050818103600083015261262f81846121c8565b905092915050565b600060208201905061264c6000830184612226565b92915050565b6000602082019050818103600083015261266c818461226e565b905092915050565b6000602082019050818103600083015261268d816122d8565b9050919050565b600060208201905081810360008301526126ad816122fb565b9050919050565b600060208201905081810360008301526126cd8161231e565b9050919050565b600060208201905081810360008301526126ed81612341565b9050919050565b6000602082019050818103600083015261270d81612364565b9050919050565b6000602082019050818103600083015261272d81612387565b9050919050565b6000602082019050818103600083015261274d816123aa565b9050919050565b6000602082019050818103600083015261276d816123cd565b9050919050565b6000602082019050818103600083015261278d816123f0565b9050919050565b600060208201905081810360008301526127ad81612413565b9050919050565b600060208201905081810360008301526127cd81612436565b9050919050565b600060208201905081810360008301526127ed81612459565b9050919050565b6000602082019050818103600083015261280d8161247c565b9050919050565b6000602082019050818103600083015261282d8161249f565b9050919050565b6000602082019050818103600083015261284d816124c2565b9050919050565b6000602082019050818103600083015261286d816124e5565b9050919050565b60006080820190506128896000830184612508565b92915050565b60006020820190506128a4600083018461256c565b92915050565b60006128b46128c5565b90506128c08282612b2c565b919050565b6000604051905090565b600067ffffffffffffffff8211156128ea576128e9612c64565b5b6128f382612c93565b9050602081019050919050565b6000819050602082019050919050565b600081519050919050565b600081519050919050565b600081519050919050565b6000602082019050919050565b600082825260208201905092915050565b600082825260208201905092915050565b600082825260208201905092915050565b600081905092915050565b600061298782612aa1565b915061299283612aa1565b9250827fffffffffffffffffffffffffffffffffffffffffffffffffffffffffffffffff038211156129c7576129c6612bd7565b5b828201905092915050565b60006129dd82612aa1565b91506129e883612aa1565b9250826129f8576129f7612c06565b5b828204905092915050565b6000612a0e82612aa1565b9150612a1983612aa1565b925082821015612a2c57612a2b612bd7565b5b828203905092915050565b6000612a4282612a81565b9050919050565b60008115159050919050565b60007fffffffff0000000000000000000000000000000000000000000000000000000082169050919050565b600073ffffffffffffffffffffffffffffffffffffffff82169050919050565b6000819050919050565b600060ff82169050919050565b82818337600083830152505050565b60005b83811015612ae5578082015181840152602081019050612aca565b83811115612af4576000848401525b50505050565b60006002820490506001821680612b1257607f821691505b60208210811415612b2657612b25612c35565b5b50919050565b612b3582612c93565b810181811067ffffffffffffffff82111715612b5457612b53612c64565b5b80604052505050565b6000612b6882612aa1565b91507fffffffffffffffffffffffffffffffffffffffffffffffffffffffffffffffff821415612b9b57612b9a612bd7565b5b600182019050919050565b6000612bb182612aa1565b9150612bbc83612aa1565b925082612bcc57612bcb612c06565b5b828206905092915050565b7f4e487b7100000000000000000000000000000000000000000000000000000000600052601160045260246000fd5b7f4e487b7100000000000000000000000000000000000000000000000000000000600052601260045260246000fd5b7f4e487b7100000000000000000000000000000000000000000000000000000000600052602260045260246000fd5b7f4e487b7100000000000000000000000000000000000000000000000000000000600052604160045260246000fd5b6000601f19601f8301169050919050565b7f4552433732313a207472616e7366657220746f206e6f6e20455243373231526560008201527f63656976657220696d706c656d656e7465720000000000000000000000000000602082015250565b7f4f776e61626c653a206e6577206f776e657220697320746865207a65726f206160008201527f6464726573730000000000000000000000000000000000000000000000000000602082015250565b7f4552433732313a207472616e736665722066726f6d20696e636f72726563742060008201527f6f776e6572000000000000000000000000000000000000000000000000000000602082015250565b7f4552433732313a20746f6b656e20616c7265616479206d696e74656400000000600082015250565b7f4552433732313a207472616e7366657220746f20746865207a65726f2061646460008201527f7265737300000000000000000000000000000000000000000000000000000000602082015250565b7f4552433732313a20617070726f766520746f2063616c6c657200000000000000600082015250565b7f4552433732313a206f70657261746f7220717565727920666f72206e6f6e657860008201527f697374656e7420746f6b656e0000000000000000000000000000000000000000602082015250565b7f4552433732313a20617070726f76652063616c6c6572206973206e6f74206f7760008201527f6e6572206e6f7220617070726f76656420666f7220616c6c0000000000000000602082015250565b7f4552433732313a2062616c616e636520717565727920666f7220746865207a6560008201527f726f206164647265737300000000000000000000000000000000000000000000602082015250565b7f4552433732313a206f776e657220717565727920666f72206e6f6e657869737460008201527f656e7420746f6b656e0000000000000000000000000000000000000000000000602082015250565b7f4552433732313a206d696e7420746f20746865207a65726f2061646472657373600082015250565b7f4552433732313a20617070726f76656420717565727920666f72206e6f6e657860008201527f697374656e7420746f6b656e0000000000000000000000000000000000000000602082015250565b7f4f776e61626c653a2063616c6c6572206973206e6f7420746865206f776e6572600082015250565b7f4552433732314d657461646174613a2055524920717565727920666f72206e6f60008201527f6e6578697374656e7420746f6b656e0000000000000000000000000000000000602082015250565b7f4552433732313a20617070726f76616c20746f2063757272656e74206f776e6560008201527f7200000000000000000000000000000000000000000000000000000000000000602082015250565b7f4552433732313a207472616e736665722063616c6c6572206973206e6f74206f60008201527f776e6572206e6f7220617070726f766564000000000000000000000000000000602082015250565b61310581612a37565b811461311057600080fd5b50565b61311c81612a49565b811461312757600080fd5b50565b61313381612a55565b811461313e57600080fd5b50565b61314a81612aa1565b811461315557600080fd5b50565b61316181612aab565b811461316c57600080fd5b5056fea2646970667358221220475b3cc0898cd00b5dbb6b95b792c333b1de3db31d3a3215ba9ac6f017b47c1d64736f6c63430008010033",
  "immutableReferences": {},
  "source": "pragma solidity 0.8.1;\n\nimport \"../node_modules/@openzeppelin/contracts/token/ERC721/ERC721.sol\";\nimport \"../node_modules/@openzeppelin/contracts/access/Ownable.sol\";\n\ncontract Token is ERC721, Ownable {\n    struct Plant {\n        uint8 health;\n        uint8 feature;\n        uint256 lastWatered;\n        uint256 endurance;\n    }\n\n    uint256 nextId = 0;\n\n    mapping(uint256 => Plant) private _tokenDetails;\n\n    constructor(string memory name, string memory symbol)\n        ERC721(name, symbol)\n    {}\n\n    function getTokenDetails(uint256 tokenId)\n        public\n        view\n        returns (Plant memory)\n    {\n        return _tokenDetails[tokenId];\n    }\n\n    function mint(\n        uint8 health,\n        uint8 feature,\n        uint256 endurance\n    ) public onlyOwner {\n        _tokenDetails[nextId] = Plant(\n            health,\n            feature,\n            block.timestamp,\n            endurance\n        );\n        _safeMint(msg.sender, nextId);\n        nextId++;\n    }\n\n    function water(uint256 tokenId) public {\n        Plant storage plant = _tokenDetails[tokenId];\n        require(plant.lastWatered + plant.endurance > block.timestamp);\n        plant.lastWatered = block.timestamp;\n    }\n\n    function getAllTokensForUser(address user)\n        public\n        view\n        returns (uint256[] memory)\n    {\n        uint256 tokenCount = balanceOf(user);\n        if (tokenCount == 0) {\n            return new uint256[](0);\n        } else {\n            uint256[] memory result = new uint256[](tokenCount);\n            uint256 totalPlants = nextId;\n            uint256 resultIndex = 0;\n            uint256 i;\n            for (i = 0; i < totalPlants; i++) {\n                if (ownerOf(i) == user) {\n                    result[resultIndex] = i;\n                    resultIndex++;\n                }\n            }\n            return result;\n        }\n    }\n\n    function _beforeTokenTransfer(\n        address from,\n        address to,\n        uint256 tokenId\n    ) internal override {\n        Plant storage plant = _tokenDetails[tokenId];\n        require(plant.lastWatered + plant.endurance > block.timestamp);\n    }\n}\n",
  "sourcePath": "/home/kdrillar/Desktop/planton/contracts/Token.sol",
  "compiler": {
    "name": "solc",
    "version": "0.8.1+commit.df193b15.Emscripten.clang"
  },
  "schemaVersion": "3.4.6",
  "updatedAt": "2022-03-27T18:39:33.378Z",
  "networkType": "ethereum",
  "devdoc": {
    "kind": "dev",
    "methods": {
      "approve(address,uint256)": {
        "details": "See {IERC721-approve}."
      },
      "balanceOf(address)": {
        "details": "See {IERC721-balanceOf}."
      },
      "getApproved(uint256)": {
        "details": "See {IERC721-getApproved}."
      },
      "isApprovedForAll(address,address)": {
        "details": "See {IERC721-isApprovedForAll}."
      },
      "name()": {
        "details": "See {IERC721Metadata-name}."
      },
      "owner()": {
        "details": "Returns the address of the current owner."
      },
      "ownerOf(uint256)": {
        "details": "See {IERC721-ownerOf}."
      },
      "renounceOwnership()": {
        "details": "Leaves the contract without owner. It will not be possible to call `onlyOwner` functions anymore. Can only be called by the current owner. NOTE: Renouncing ownership will leave the contract without an owner, thereby removing any functionality that is only available to the owner."
      },
      "safeTransferFrom(address,address,uint256)": {
        "details": "See {IERC721-safeTransferFrom}."
      },
      "safeTransferFrom(address,address,uint256,bytes)": {
        "details": "See {IERC721-safeTransferFrom}."
      },
      "setApprovalForAll(address,bool)": {
        "details": "See {IERC721-setApprovalForAll}."
      },
      "supportsInterface(bytes4)": {
        "details": "See {IERC165-supportsInterface}."
      },
      "symbol()": {
        "details": "See {IERC721Metadata-symbol}."
      },
      "tokenURI(uint256)": {
        "details": "See {IERC721Metadata-tokenURI}."
      },
      "transferFrom(address,address,uint256)": {
        "details": "See {IERC721-transferFrom}."
      },
      "transferOwnership(address)": {
        "details": "Transfers ownership of the contract to a new account (`newOwner`). Can only be called by the current owner."
      }
    },
    "version": 1
  },
  "userdoc": {
    "kind": "user",
    "methods": {},
    "version": 1
  }
}